{
  "contractName": "Counter",
  "abi": [
    {
      "inputs": [],
      "name": "count",
      "outputs": [
        {
          "internalType": "uint256",
          "name": "",
          "type": "uint256"
        }
      ],
      "stateMutability": "view",
      "type": "function"
    },
    {
      "inputs": [],
      "name": "increment",
      "outputs": [],
      "stateMutability": "nonpayable",
      "type": "function"
    },
    {
      "inputs": [],
      "name": "decrement",
      "outputs": [],
      "stateMutability": "nonpayable",
      "type": "function"
    },
    {
      "inputs": [],
      "name": "getCount",
      "outputs": [
        {
          "internalType": "uint256",
          "name": "",
          "type": "uint256"
        }
      ],
      "stateMutability": "view",
      "type": "function"
    }
  ],
  "bytecode": "0x60806040526000805534801561001457600080fd5b506102af806100246000396000f3fe608060405234801561001057600080fd5b506004361061004c5760003560e01c806306661abd146100515780632baeceb71461006f578063a87d942c14610079578063d09de08a14610097575b600080fd5b6100596100a1565b6040516100669190610197565b60405180910390f35b6100776100a7565b005b610081610106565b60405161008e9190610197565b60405180910390f35b61009f61010f565b005b60005481565b60008054116100eb576040517f08c379a00000000000000000000000000000000000000000000000000000000081526004016100e290610177565b60405180910390fd5b60016000808282546100fd91906101c3565b92505081905550565b60008054905090565b60008081548092919061012190610201565b9190505550565b6000610135601b836101b2565b91507f436f756e742063616e6e6f74206265206c657373207468616e203000000000006000830152602082019050919050565b610171816101f7565b82525050565b6000602082019050818103600083015261019081610128565b9050919050565b60006020820190506101ac6000830184610168565b92915050565b600082825260208201905092915050565b60006101ce826101f7565b91506101d9836101f7565b9250828210156101ec576101eb61024a565b5b828203905092915050565b6000819050919050565b600061020c826101f7565b91507fffffffffffffffffffffffffffffffffffffffffffffffffffffffffffffffff82141561023f5761023e61024a565b5b600182019050919050565b7f4e487b7100000000000000000000000000000000000000000000000000000000600052601160045260246000fdfea26469706673582212200e4988f7c25548794955a4f71164a0d2238286711eeca9b0e23a9d0a1631a96c64736f6c63430008000033",
  "immutableReferences": {},
  "source": "// Counter.sol\r\n// SPDX-License-Identifier: MIT\r\npragma solidity ^0.8.0;\r\n\r\ncontract Counter {\r\n    uint256 public count = 0;\r\n    function increment() public {\r\n        count++;\r\n    }\r\n    function decrement() public {\r\n        require(count>0, \"Count cannot be less than 0\");\r\n        count-=1;\r\n    }\r\n    \r\n\r\n    function getCount() public view returns (uint256) {\r\n        return count;\r\n    }\r\n}",
  "sourcePath": "D:\\Work\\smart-contract-backend\\contracts\\Counter.sol",
  "compiler": {
    "name": "solc",
    "version": "0.8.0+commit.c7dfd78e.Emscripten.clang"
  },
  "schemaVersion": "3.4.16",
  "updatedAt": "2024-09-17T15:01:17.706Z",
  "devdoc": {
    "kind": "dev",
    "methods": {},
    "version": 1
  },
  "userdoc": {
    "kind": "user",
    "methods": {},
    "version": 1
  }
}